:020000040800F2
:10000000281700200101000851130008851200087C
:100010004D130008C301000819400008000000004B
:100020000000000000000000000000004917000868
:100030005102000800000000471700084B17000895
:100040001B0100081B0100081B0100081B01000820
:100050001B0100081B0100081B0100081B01000810
:100060001B0100081B0100081B0100081B01000800
:100070001B0100081B0100081B0100081B010008F0
:100080001B0100081B0100081B0100081B010008E0
:10009000613F00081B0100081B0100081B0100084C
:1000A0001B0100081B0100081B0100081B010008C0
:1000B0001B0100081B0100081B0100081B010008B0
:1000C0001B0100081B0100081B0100081B010008A0
:1000D0001B0100081B0100081B0100081B01000890
:1000E0001B0100081B0100081B010008DFF80CD0F1
:1000F00000F02AF800480047734000082817002045
:100100000648804706480047FEE7FEE7FEE7FEE7B1
:10011000FEE7FEE7FEE7FEE7FEE7FEE75D18000804
:10012000ED00000840EA01039B0703D009E008C97D
:10013000121F08C0042AFAD203E011F8013B00F8AC
:10014000013B521EF9D27047064C074D06E0E068AD
:1001500040F0010394E8070098471034AC42F6D30E
:10016000FFF7C8FF88400008A840000870B58C1849
:1001700010F8015B15F0070301D110F8013B2A11BB
:1001800006D110F8012B03E010F8016B01F8016BA8
:100190005B1EF9D12B0705D40023521E0DD401F8A4
:1001A000013BFAE710F8013BCB1A921C03E013F86D
:1001B000015B01F8015B521EF9D5A142D8D30020A2
:1001C00070BD00BFFEE70346042B15D007DC7BB1F2
:1001D000012B0ED0022B0DD0032B12D10BE0202BC4
:1001E0000BD0212B0AD0222B09D0232B09D107E0D9
:1001F00008E007E006E005E004E003E002E001E0DB
:1002000000E000BF00BF00207047002070470000E2
:1002100010B500220449054801F061FC0449034877
:1002200001F056FC002010BD300A0020840100209F
:100230004806002070B504460D462146034801F0EB
:1002400047FC024801F020FC002070BD8401002022
:10025000704772B600BFFEE770B50A480468001D1B
:100260000568001D0668344454B10822064920463A
:1002700001F00AF8042204491031284601F004F87C
:1002800070BD0000E8F7FF1F36000020034800683B
:10029000034909780844014908607047600000205C
:1002A0006800002010B50848006840F010000649BA
:1002B0000860032000F0A8F8002000F007F800F024
:1002C0002BF8002010BD00000020024070B504464D
:1002D0000E4800784FF47A71B1FBF0F00C490968D0
:1002E000B1FBF0F5284600F0B3FF08B1012070BD66
:1002F000102C07D200222146501E00F047F8054876
:10030000046001E00120F2E70020F0E7680000202F
:100310006C0000206400002008B500BF114880690F
:1003200040F001000F4988610846806900F0010033
:10033000009000BF00BF00BF0846C06940F0805079
:10034000C8610846C06900F08050009000BF00BF3F
:1003500000BF0549486820F0E06040F00070486048
:1003600000BF08BD001002400000014001460846E1
:10037000002809DB00F01F0301229A4043099B007B
:1003800003F1E023C3F8002100BF70472DE9F05FBF
:1003900080460D461646002703F040FE07463946C4
:1003A0002A46334601F00700C0F1070ABAF1040FEC
:1003B00002D94FF0040A01E0C0F1070AD14600F16A
:1003C000040ABAF1070F02D24FF0000A01E0A0F1CF
:1003D000030AD4464FF0010A0AFA09FAAAF1010AFF
:1003E0000AEA020A0AFA0CFA4FF0010B0BFA0CFBAC
:1003F000ABF1010B0BEA030B4AEA0B042146404622
:1004000003F014FEBDE8F09F00BF00F00702064BAA
:1004100019684FF6FF031940044B0B4343EA0221CE
:10042000014B196000BF70470CED00E00000FA05B9
:1004300070B505460C4604F08000802808D104F011
:10044000070000EB800605F1280000EBC60105E07F
:1004500004EB840605F5B47000EBC6011AB9002060
:100460000873CB8004E0012008730B81180C4881CD
:10047000002070BD704770B504460D4605EB85033E
:1004800004F1280101EBC3014A692946D4F8E802C6
:1004900001F098FE70BD70B504460D4605EB85036E
:1004A00004F5B47101EBC3014A692946D4F8E802A6
:1004B00001F008FF70BD70B504460E4606F08000DE
:1004C00080280AD106F0070000EB800104F1280023
:1004D00000EBC1050120687009E006F0070000EBA1
:1004E000800104F5B47000EBC1050020687006F0CF
:1004F0000700287000BF94F8A802012801D102204B
:1005000070BD012084F8A80200BF2946206802F0CF
:1005100061FD00BF002084F8A80200BF00BFEFE724
:1005200070B504460E4606F00F006168884201D996
:10053000012070BD06F0800080280AD106F0070077
:1005400000EB800104F1280000EBC1050120687078
:1005500009E006F0070000EB800104F5B47000EB41
:10056000C105002068700020A87006F00700287000
:1005700000BF94F8A802012801D10220D9E7012088
:1005800084F8A80200BF2946206802F07FFE00BF61
:10059000002084F8A80200BF00BFCAE72DE9F0419F
:1005A00005460C46174607F48040002850D02868BE
:1005B000B0F85010207801EBC000801C296801F5CC
:1005C000806131F81000C0F30906A069B04203D37E
:1005D000A069801BA06101E00020A061A069A8B90A
:1005E00000BF22785200296831F812104BF68F7242
:1005F00001EA020080F4005040F4004141F0800123
:1006000023785B002A6822F8131000BF07F040002F
:10061000A8B100BF00BF22785200296831F812103B
:1006200048F68F7201EA020040F4004141F0C00137
:1006300023785B002A6822F8131000BF00BF002E49
:1006400055D0228961693346286803F095FC4EE055
:100650002868B0F85010207801EBC000801D296890
:1006600001F5806131F81000C0F30906A069B042BD
:1006700003D3A069801BA06101E00020A061A069F4
:10068000A8B900BF22785200296831F812104BF641
:100690008F7201EA020080F4005040F4004141F002
:1006A000800123785B002A6822F8131000BF07F04E
:1006B0004000A8B900BF00BF22785200296831F875
:1006C000121048F68F7201EA020040F4004141F036
:1006D000C00123785B002A6822F8131000BF00BF16
:1006E0002EB1628961693346286803F045FC3046C3
:1006F000BDE8F0812DE9F04705460C46904608F02C
:100700004000002871D02868B0F85010207801EB24
:10071000C000801C296801F5806131F81000C0F329
:100720000907A069B84203D9A069C01BA06101E014
:100730000020A061A06900287ED100BF6078C8B900
:1007400000BF29682A68B2F8502011442278022399
:1007500003EBC20201F5806303EB420000BF028895
:1007600048F2FF331A400280028842F400420280BD
:1007700000BF13E06078012810D100BF28682A6804
:10078000B2F8502010442278022303EBC20200F595
:10079000806303EB420100220A8000BF00BF00BF5C
:1007A0002968607810BB00BF2B68D5F800C0BCF882
:1007B00050C0634494F800C04FF0060909EBCC0C1C
:1007C00003F5806909EB4C0000BFB0F800C048F2A7
:1007D000FF390CEA090CA0F800C0B0F800C04CF4D6
:1007E000004CA0F800C000BF11E0C0E06078012814
:1007F0000DD12868B0F8500001442078062303EB9F
:10080000C00001F5806303EB40020020108000BFB0
:1008100021782846FFF72FFE08F48040002816D0E4
:1008200000BF00BF22785200296831F8121048F644
:100830008F7201EA020000E00AE040F4004141F456
:10084000814123785B002A6822F8131000BFCAE1B7
:1008500008F48040A8B100BF00BF22785200296888
:1008600031F8121048F68F7201EA020040F400419C
:1008700041F4814223785B00296821F8132000BFEE
:1008800000BF94F824000128E1D160693844606118
:10089000E0693844E0612169206A884204D326690E
:1008A000206A801B20620BE0206A20B93E460020AF
:1008B00084F8240004E0002084F82400266A2062E2
:1008C00000BF6078B8BB00BF2A682968B1F8501033
:1008D0000A442178022303EBC10102F5806303EB94
:1008E0004101084600BF56B9038848F2FF3C03EABD
:1008F0000C030380038843F40043038019E03E2E79
:100900000BD800BF710806F0010303B1491C4FF674
:10091000FF7303EA812303800BE000BF710906F037
:100920001F0303B9491E4FF4004343EA81230380A8
:1009300000BF00BF13E0FFE7607801280FD100BFC0
:1009400028682A68B2F8502010442278022303EB6A
:10095000C20200F5806303EB42010E8000BF00BFBE
:10096000B3B222896169286803F035FB3BE128684E
:10097000B0F85010207801EBC000801D296801F507
:10098000806131F81000C0F30907A069B84203D3B1
:10099000A069C01BA06101E00020A061A06900283F
:1009A0007DD100BF6078C8B900BF29682A68B2F855
:1009B000502011442278022303EBC20201F5806328
:1009C00003EB420000BF028848F2FF331A40028066
:1009D000028842F40042028000BF13E060780128E0
:1009E00010D100BF28682A68B2F85020104422783D
:1009F000022303EBC20200F5806303EB42010022F5
:100A00000A8000BF00BF00BF2968607808BB00BF34
:100A10002B68D5F800C0BCF850C0634494F800C0FF
:100A20004FF0060909EBCC0C03F5806909EB4C008B
:100A300000BFB0F800C048F2FF390CEA090CA0F87A
:100A400000C0B0F800C04CF4004CA0F800C000BFDB
:100A500010E0607801280DD12868B0F850000144FA
:100A60002078062303EBC00001F5806303EB40020E
:100A70000020108000BF21782846FFF7FCFC08F416
:100A80008040002816D100BF00BF2278520029689C
:100A900031F8121048F68F7201EA020000E00AE015
:100AA00040F4004141F4814123785B002A6822F838
:100AB000131000BF97E008F48040A8B900BF00BF42
:100AC00022785200296831F8121048F68F7201EA34
:100AD000020040F4004141F4814123785B002A6820
:100AE00022F8131000BF00BF94F8240001287AD127
:100AF000606938446061E0693844E0612169206AD6
:100B0000884204D32669206A801B20620BE0206A99
:100B100020B93E46002084F8240004E0266A002024
:100B2000206284F8240000BF2A68607890BB00BF70
:100B3000D5F800C02968B1F850108C4421784FF0E6
:100B4000060909EBC1010CF5806909EB4101084672
:100B500000BF76B9B0F8009048F2FF3A09EA0A09F6
:100B6000A0F80090B0F8009049F40049A0F8009077
:100B700020E03E2E0FD800BF710806F00109B9F140
:100B8000000F00D0491C4FF6FF7909EA8129A0F82F
:100B900000900FE010E000BF710906F01F09B9F1E5
:100BA000000F00D1491E4FF4004949EA8129A0F8FD
:100BB000009000BF00BF0FE0607801280CD12868CA
:100BC000B0F8500002442078062101EBC00002F585
:100BD000806101EB40031E8000BFB3B2628961698E
:100BE000286803F0F8F900BF22785200296831F82C
:100BF000121048F6BF7201EA020080F0100080F087
:100C0000200040F4004141F0800123785B002A6815
:100C100022F8131000BF0020BDE8F087024601F063
:100C2000070000EB800302F5B47000EBC300C0695D
:100C300070472DE9F04705460E4690461F464FF097
:100C4000000906F0800080280AD106F0070000EBBA
:100C5000800105F1280000EBC1040120607009E06B
:100C600006F0070000EB800105F5B47000EBC1044D
:100C70000020607006F007002070C4F81080E77054
:100C8000607808B12078E081022F01D10020207126
:100C900000BF95F8A802012802D10220BDE8F08724
:100CA000012085F8A80200BF2146286801F068FFEE
:100CB00000BF002085F8A80200BF4846EEE72DE9F6
:100CC000F04105460E461746984606F0070000EB31
:100CD000800105F5B47000EBC1046761C4F81880A9
:100CE0000020E061607006F00700207006F0070049
:100CF00020B92146286802F064FB03E021462868F9
:100D000002F05FFB0020BDE8F08170B504460D469F
:100D100005F007006168884201D9012070BD05F027
:100D2000800080280AD105F0070000EB800104F163
:100D3000280000EBC1060120707007E005EB85017B
:100D400004F5B47000EBC106002070700120B07093
:100D500005F00700307000BF94F8A802012801D107
:100D60000220DBE7012084F8A80200BF314620689A
:100D700002F0F9FA05F0070020B904F52C7120689B
:100D800002F081FA00BF002084F8A80200BF00BF73
:100D9000C4E72DE9F04105460E4690461F4606F091
:100DA000070000EB800105F1280000EBC104C4F846
:100DB0001480A761012084F8240027620020E061EC
:100DC0000120607006F00700207006F0070020B9CF
:100DD0002146286802F0F5FA03E02146286802F06F
:100DE000F0FA0020BDE8F0817FB50446206803F0EA
:100DF000BFF800F40040B0F5004F02D1204600F0EB
:100E0000A9FA206803F0B4F800F48060B0F5806FB0
:100E10000FD12068B0F844004FF6FF310840216838
:100E2000A1F84400204600F09FF90021204600F080
:100E3000BBF9206803F09CF800F48040B0F5804FC7
:100E400008D12068B0F844004BF6FF7108402168D3
:100E5000A1F84400206803F08BF800F40050B0F5CE
:100E6000005F08D12068B0F844004DF6FF710840DB
:100E70002168A1F84400206803F07AF800F480505B
:100E8000B0F5805F1DD12068B0F840004FF6FB71CF
:100E900008402168A1F840002068B0F840004FF6F3
:100EA000F77108402168A1F84000204600F06EF973
:100EB0002068B0F844004EF6FF7108402168A1F8A0
:100EC0004400206803F054F800F40060B0F5006FAF
:100ED00055D1002507E06900206830F811002DF891
:100EE0001500681CC5B2082DF5D32068B0F8400085
:100EF00040F001002168A1F840002068B0F84000EF
:100F00004FF6FE7108402168A1F8400000BF20683C
:100F1000B0F8440000F480600028F8D02068B0F8F1
:100F200044004FF6FF3108402168A1F84400002535
:100F300007E03DF815006A00216821F81200681CDE
:100F4000C5B2082DF5D32068B0F8400040F0080085
:100F50002168A1F840002068B0F844004FF2FF710A
:100F600008402168A1F844002068B0F8400040F033
:100F700004002168A1F84000204600F057F92068DD
:100F800002F0F6FF00F40070B0F5007F0BD120688E
:100F9000B0F844004FF6FF5108402168A1F8440022
:100FA000204600F0FAF8206802F0E2FF00F48070BA
:100FB000B0F5807F08D12068B0F844004FF6FF619B
:100FC00008402168A1F844007FBD30B585B00446D3
:100FD00014B9012005B030BD94F8A90228B9002049
:100FE00084F8A802204600F09DF8032084F8A902A6
:100FF000206802F03EF9142204F110016846FFF760
:1010000091F894E80F0001F0E1FF20B1022084F88C
:10101000A9020120DEE70021206802F0D2FF0025AE
:1010200031E0012105EB850204F1280000EBC2004C
:10103000417005EB850104F1280000F8315005EB03
:10104000850100EBC100C581002105EB850204F19B
:10105000280000EBC200C17005EB850204F12800F6
:1010600000EBC200016105EB850204F1280000EBF2
:10107000C200416105EB850204F1280000EBC200CB
:101080008161681CC5B26068A842CAD800252AE000
:10109000002105EB850204F5B47000EBC20041703D
:1010A00005EB850104F5B47000F83150002105EB23
:1010B000850200EBC200C17005EB850204F5B47037
:1010C00000EBC200016105EB850204F5B47000EB92
:1010D000C200416105EB850204F5B47000EBC2006B
:1010E0008161681CC5B26068A842D1D8142204F19D
:1010F00010016846FFF716F894E80F0002F0AEF80A
:1011000020B1022084F8A902012063E7002084F8BE
:101110002400012084F8A902206802F09CF8002035
:1011200058E7000038B504460D492068884215D1BB
:1011300000BF0C48C06940F400000A49C861084675
:10114000C06900F40000009000BF00BF00221146FB
:101150001420FFF71BF91420FFF708F938BD000031
:10116000005C00400010024070B504460125A068F4
:10117000022801D0FFF76DF82946D4F8E80201F003
:10118000D5F9D4F8E80201F087F970BD10B504462E
:10119000D4F8E80201F0AEF910BD10B50446D4F859
:1011A000E80201F0B2F910BD70B504460D4600BF6B
:1011B00094F8A802012801D1022070BD012084F812
:1011C000A80200BF84F824502946206802F0FCFEE3
:1011D00000BF002084F8A80200BF00BFEDE710B5F3
:1011E000044604F52C71D4F8E80201F0B6F910BDFC
:1011F00010B5044600BF94F8A802012801D10220CE
:1012000010BD012084F8A80200BF206802F09EFEF5
:1012100001212046FFF72EF9206802F019F800BFDF
:10122000002084F8A80200BF00BFE9E710B504461B
:10123000D4F8E80201F0EAF9A06928B1034800688F
:1012400040F006000149086010BD000010ED00E00C
:1012500070B504462546681EB0F1807F01D3012099
:101260000FE0681E4FF0E02148610F214FF0FF3082
:1012700002F0DCFE00204FF0E021886107200861C9
:10128000002070BD00BFFEE730B50B46002100BF57
:1012900016E00A24B4EB107F05D9302404EB107457
:1012A00003F8114005E0412404EB10740A3C03F8F4
:1012B0001140000100254C00641C1D554C1CE1B27E
:1012C0009142E6DB30BD000008B50549896901435C
:1012D000034A9161114689690140009100BF08BD30
:1012E0000010024001490860704700006C000020B7
:1012F00010B52020FFF7E8FF0420FFF7E5FF10BD41
:1013000010B500220D490E4800F01DFF08B1FEF790
:10131000A0FF0C490A4801F0AFF908B1FEF799FFA8
:101320000949074800F0CDFB08B1FEF792FF0448D9
:1013300001F06CFA08B1FEF78CFF10BD0000002030
:1013400084010020800000205000002000BFFEE744
:1013500000BFFEE72DE9F0470546EAE12868B0F84E
:1013600044A00AF00F06002E7ED10AF01000B0BB98
:1013700000BF2968098848F60F7201EA020040F4AC
:1013800000412A68118000BF05F128042868B0F8E0
:101390005010207801EBC000801C296801F58061A5
:1013A00031F81000C0F30900E061E16960690844A8
:1013B000606100212846FFF75EF895F824000028B8
:1013C000CBD0A0690028C8D195F8240040F0800057
:1013D0002968A1F84C00002085F82400A9E1FFE766
:1013E00005F5B4742868B0F8008008F4006030B3E4
:1013F0002868B0F85010207801EBC000801D2968E3
:1014000001F5806131F81000C0F30900E061A18BA3
:101410008BB2E28805F52C71286802F0ADFD00BFA3
:101420002968098840F68F7201EA020040F08001C5
:101430002A68118000BF2846FFF7D1FE79E108F441
:101440000040002889D000BF2968098840F68F72C3
:1014500001EA020040F080012A68118000BF28687C
:10146000B0F85010207800E06FE001EBC000801D64
:10147000296801F5806131F81000C0F30900E061CE
:10148000E06990B1606980B1B4F81CC01FFA8CF3B8
:10149000E2886169286802F06FFDE16960690844CB
:1014A000606100212846FEF7F6FF2868008800F4F6
:1014B0000060002892D100BF2A682968B1F8501056
:1014C0000A4402F20C41084600BF236953B903885D
:1014D00048F2FF3C03EA0C030380038843F4004313
:1014E00003801EE023693E2B0DD800BF23695908F5
:1014F000237C03F0010303B1491C4FF6FF7303EA99
:10150000812303800DE000BF23695909237C03F088
:101510001F0303B9491E4FF4004343EA81230380AC
:1015200000BF00BF00BF00BF296809884BF68F725B
:1015300001EA020080F4805080F4005040F4004141
:1015400041F080012A681180F3E07100286830F8CA
:10155000118008F4004000287ED000BF7200296886
:1015600031F8121040F68F7201EA020040F080015B
:1015700073002A6822F8131000BF06EB860105F5F8
:10158000B47000EBC104207BB0B92868B0F85010EB
:10159000207801EBC000801D296801F5806131F8D9
:1015A0001000C0F30907002F5BD0E28861693B4659
:1015B000286802F0E1FC54E0E078022806D14246B7
:1015C00021462846FEF7EAFF07464AE000BF00BF73
:1015D00022785200296831F8121048F68F7201EA19
:1015E000020040F4004141F0C00123785B002A680A
:1015F00022F8131000BF00BF21784900286830F896
:10160000110000F48040A8B12868B0F8501020788C
:1016100001EBC000801C296801F5806131F81000E1
:10162000C0F30907EFB1228961693B46286802F0DF
:10163000A3FC16E02868B0F85010207801EBC00039
:10164000801D296801F5806131F81000C0F3090799
:101650003FB16289616900E017E03B46286802F00B
:101660008BFCE0693844E061606938446061A069DE
:1016700010B12069B84204D921782846FEF70BFF43
:1016800003E02146286801F09CFE08F08000B0B31A
:1016900006EB860105F1280000EBC10400BF7200D3
:1016A000296831F8121048F60F7201EA020040F47E
:1016B000004173002A6822F8131000BFE078032865
:1016C00007D0E07828B1E07802282DD108F48070A6
:1016D00050BB2868B0F85010207801EBC000801C87
:1016E000296801F5806131F81000C0F30909A0698B
:1016F000484505D9A069A0EB0900A06102E018E007
:101700000020A061A06920B921782846FEF7B3FE29
:101710000FE0606948446061E0694844E061214647
:10172000286801F04EFE04E0424621462846FEF7B6
:10173000E1FF2868B0F8440000F4004000287FF47E
:101740000DAEBDE8F0877047704710B5FEF79EFDFF
:1017500010BD000010B502203D49096821F00701C5
:1017600001433B4A116000BF00BF00BF384800681A
:1017700000F007000228F8D100BF3648006840F4A6
:1017800080303449086000BF00BF00BF31480068A6
:10179000C0F340400028F8D04FF480304FF4E011FF
:1017A0002C4A526822F47C1200F440330B431A4353
:1017B000284B5A6000BF00BF1846006840F0807098
:1017C0001946086000BF00BF00BF22480068C0F390
:1017D00040600028F8D000201E49496821F0F0013F
:1017E00001431C4A516000BF10151146496821F49D
:1017F000E0610143516000BF00201146496821F4B7
:1018000060510143516000BF02201146496821F038
:1018100003010143516000BF00BF00BF0D48406895
:1018200000F00C000828F8D10B48FFF75BFD002002
:10183000FEF74CFD08B1FEF70CFD00200549496894
:1018400021F480010143034A516000BF10BD000034
:10185000002002400010024000A24A0470472DE917
:10186000F04104460D46D4F8B862D4F8C072D4F8FA
:10187000B80278B305EB850104F1140000EB810098
:10188000806808B305EB850104F1140000EB8100CA
:1018900005EB8502816807F1280000EBC2000069B2
:1018A000B1FBF0F200FB121070B9002105EB8502CC
:1018B00004F1140000EB8200816000231A462946DF
:1018C000204600F0ADFE02E00020C6F81402002021
:1018D000BDE8F081FFE70220FAE770B504460E4646
:1018E000D4F8B8523146204600F03FFDC5F80C024E
:1018F000D4F8B80248B1D5F80402D4F8BC12CA68CA
:1019000005F503719047002070BD0220FCE770B51B
:1019100004460E4600258121204600F040FC0021AF
:10192000E1620121204600F03AFC0021C4F86C116C
:101930008221204600F033FC00212164D4F8B80253
:1019400050B1D4F8BC1248688047D4F8B80201F00E
:1019500010F90020C4F8B802284670BD70B50546DD
:10196000D5F8B842D5F8BC0278B194F80002FF2847
:101970000BD094F8012294F80002D5F8BC128B68C1
:1019800021469847FF2084F80002002070BD000027
:1019900001460A20088001487047000074000020BA
:1019A000014643200880014870470000FC000020E9
:1019B000014643200880014870470000B80000201D
:1019C0000146432008800148704700004001002084
:1019D0002DE9F04104460F460026207C88B94FF4DB
:1019E000007302228121204600F026FD0121E162E0
:1019F0004B020222204600F01FFD0121C4F86C11A9
:101A00000FE0402302228121204600F015FD012134
:101A1000E16240230222204600F00EFD0121C4F8BD
:101A20006C11082303228221204600F005FD0121CC
:101A300021644FF4077001F09DF8C4F8B802D4F89F
:101A4000B80208B901261CE0D4F8B852D4F8BC1288
:101A5000086880470020C5F81402C5F81802207CE9
:101A600040B94FF4007301212046D5F8042200F05C
:101A7000FBFC06E0402301212046D5F8042200F0BB
:101A8000F3FC3046BDE8F08170B50446D4F8B85296
:101A9000D4F8B80298B1207C40B94FF4007301210A
:101AA0002046D5F8042200F0DFFC06E040230121A7
:101AB0002046D5F8042200F0D7FC002070BD02209B
:101AC000FCE70246022011B1C2F8BC1200207047A8
:101AD0000246D2F8B832C3F804120020704710B59D
:101AE0000346D3F8B842C4F80812C4F81022002004
:101AF00010BD2DE9FC4105460C46D5F8B862002022
:101B0000019000900027207800F0600040B320286A
:101B10005FD1E088E0B1207800F0800060B1E28819
:101B20006078D5F8BC128B6831469847E288314618
:101B3000284600F0C7F812E0607886F80002A07925
:101B400086F80102E2883146284600F09AF806E05D
:101B50006078D5F8BC1200228B68214698473EE099
:101B6000607820B10A2812D00B282AD11FE095F8FE
:101B70009C02032805D102226946284600F0A2F8FB
:101B800004E02146284600F070F802271FE095F88F
:101B90009C02032805D1012201A9284600F092F8F1
:101BA00004E02146284600F060F802270FE095F88F
:101BB0009C02032804D02146284600F056F802274C
:101BC00005E02146284600F050F8022700BF00BF7C
:101BD00005E02146284600F048F8022700BF00BF74
:101BE0003846BDE8FC8170B504460D46D4F8B40211
:101BF0002946426820469047002070BD70B50446D3
:101C00000D4694F89C02012804D0022803D0032832
:101C10000CD101E000BF00BF6888012805D1002079
:101C2000C4F8A402204600F05EF804E029462046ED
:101C300000F01BF800BF00BF70BD70B506460C4633
:101C400015462B4622460021304600F00DFC0020B0
:101C500070BD70B506460C4615462B46224600213F
:101C6000304600F0DDFC002070BD70B504460D4626
:101C70008021204600F0A8FC0021204600F0A4FCB2
:101C800070BD70B504460E4615460320C4F8940294
:101C90004FF4AE700551001D05512B463246002110
:101CA000204600F0E1FB002070BD10B50446052081
:101CB000C4F8940200231A461946204600F0D4FBCB
:101CC000002010BD70B504460E4615460220C4F82B
:101CD0009402E56125622B4632460021204600F041
:101CE0009FFC002070BD10B504460420C4F8940287
:101CF00000231A461946204600F092FC002010BD31
:101D000070B505460C462DB92246064906A000F0DE
:101D1000DBF904E02246034903A000F0D5F90148AD
:101D200070BD00004804002043444320436F6E66AA
:101D300069670000024612200880014870470000D1
:101D40001C00002070B505460C462DB922460649F8
:101D500006A000F0B9F904E02246034903A000F010
:101D6000B3F9014870BD00004804002043444320FB
:101D7000496E746572666163650000000246042066
:101D800008800148704700003000002070B505460B
:101D90000C462246024903A000F096F9004870BDA7
:101DA0004804002053544D6963726F656C65637419
:101DB000726F6E696373000070B505460C462DB9ED
:101DC0002246064906A000F07FF904E022460349B6
:101DD00003A000F079F9014870BD0000480400201C
:101DE00053544D3332205669727475616C20436FC1
:101DF0006D506F727400000070B505460C461A20D5
:101E00002080FEF729FA014870BD00003400002050
:101E100070B504460D46E888012804D029462046BE
:101E2000FFF723FF1EE094F89C02012804D002284B
:101E300003D0032810D109E000BF0020A0600122D8
:101E400004F108012046FFF73DFF0AE00122211DB1
:101E50002046FFF737FF04E029462046FFF705FF3D
:101E600000BF00BF70BDF8B504460E4600200090CC
:101E70000027002570880012082875D2DFE800F0DE
:101E8000C7040C20C7C7A5B5207CD4F8B0120A68D7
:101E9000694690470746C1E0207C40B9D4F8B402B7
:101EA000816A6846884707460220787007E0D4F8C0
:101EB000B402C16A68468847074602207870ADE0E0
:101EC000B078062878D2DFE800F00316293C50638A
:101ED000D4F8B002406838B1207CD4F8B0124A6817
:101EE00069469047074605E031462046FFF7BDFEAC
:101EF000681CC5B267E0D4F8B002806838B1207CB5
:101F0000D4F8B0128A6869469047074605E0314622
:101F10002046FFF7AAFE681CC5B254E0D4F8B00210
:101F2000C06838B1207CD4F8B012CA6869469047BE
:101F3000074605E031462046FFF797FE681CC5B20C
:101F400041E0D4F8B002006938B1207CD4F8B01276
:101F50000A6969469047074605E031462046FFF783
:101F600084FE681CC5B22EE051E0D4F8B00240698E
:101F700038B1207CD4F8B0124A69694690470746C8
:101F800005E031462046FFF770FE681CC5B21AE036
:101F9000D4F8B002806940B1207CD4F8B0128A69CC
:101FA00069469047074606E006E031462046FFF7BF
:101FB0005CFE681CC5B206E031462046FFF755FEC0
:101FC000681CC5B200BF00BF28E0207C30B9D4F83F
:101FD000B402416B68468847074605E03146204613
:101FE000FFF743FE681CC5B218E0207C40B9D4F866
:101FF000B402016B6846884707460720787005E001
:1020000031462046FFF731FE681CC5B206E0314676
:102010002046FFF72AFE681CC5B200BF00BF05B10D
:10202000F8BDBDF8000088B1F08878B1F088BDF83F
:102030000010884202DDBDF8000000E0F08800904A
:10204000BDF8002039462046FFF73CFEF08810B965
:102050002046FFF748FE00BFE2E70146002002E00D
:10206000421CD0B2491C0A78002AF9D1704770B5D9
:1020700004460D4694F89C02012804D0022803D09F
:1020800003281AD101E000BF00BFE888022804D06D
:1020900029462046FFF7E9FD14E00120E060D4F86E
:1020A000A40218B1E06840F00200E060022204F1EE
:1020B0000C012046FFF706FE04E029462046FFF704
:1020C000D4FD00BF00BF70BD2DE9F04104460D46B0
:1020D00017460026FCB12046FFF7BFFF022101EBA7
:1020E000400038803A783046711CCEB22A54032220
:1020F0003046711CCEB22A540AE014F8012B304647
:10210000711CCEB22A5400223046711CCEB22A5421
:1021100020780028F1D1BDE8F0810146002031B1DE
:10212000012906D0022906D0032908D105E00020A4
:1021300007E0022005E0012003E0022001E0022088
:1021400000BF00BF704770B504460D4616460CB977
:10215000022070BDD4F8B40210B10020C4F8B4025B
:102160000DB1C4F8B052012084F89C0226702046BC
:1021700000F004F90020ECE72DE9F04104460D469B
:10218000002600272946D4F8C002FEF7C9F9064602
:102190003046FFF7C2FF07463846BDE8F0812DE91B
:1021A000F04104460D46002600272946D4F8C00217
:1021B000FEF781F906463046FFF7AFFF074638467F
:1021C000BDE8F0812DE9F04104460E461746002E89
:1021D00064D104F11405D4F89402022848D1D5E959
:1021E0000301884210D9D5E90301401AE860A889A3
:1021F00082B239462046FFF72CFD00231A461946C5
:10220000204600F031F93EE02969A868B0FBF1F200
:1022100001FB1200B8B92969A868884213D3A868DD
:10222000D4F8981288420ED2002211462046FFF7B9
:1022300010FD0020C4F8980200231A4619462046D3
:1022400000F012F91FE0D4F8B402C06840B194F86D
:102250009C02032804D1D4F8B402C1682046884700
:102260008021204600F0B0F92046FFF71EFD0AE06D
:10227000D4F89402042802D0D4F8940218B980212A
:10228000204600F0A1F994F8A002012818D12046B8
:1022900000F0FAF9002084F8A00211E0D4F8B402AA
:1022A000406950B194F89C02032806D1D4F8B402D6
:1022B000314642692046904702E00220BDE8F081A5
:1022C0000020FBE72DE9F04104460E461746BEBB51
:1022D00004F5AA75D4F89402032825D1D5E90301A1
:1022E000884210D9D5E90301401AE860D5E9030115
:1022F000884201D2E86800E0286982B23946204667
:10230000FFF79BFC2FE0D4F8B402006940B194F8C9
:102310009C02032804D1D4F8B402016920468847FE
:102320002046FFF7E0FC1EE0D4F8940205281AD1FD
:102330000020C4F894020021204600F045F912E084
:10234000FFE7D4F8B402806950B194F89C020328E6
:1023500006D1D4F8B402314682692046904702E0A3
:102360000220BDE8F0810020FBE770B504460D4671
:102370002946D4F8C002FEF751FC70BD10B50446E2
:102380001D48C0F8E842C4F8C0021C481A49086059
:102390000820486002211848816000218161C161E4
:1023A0000162FEF712FE08B1FDF753FF04F5307429
:1023B0001823002211462068FEF73AF8582300221D
:1023C00080212068FEF734F8C02300228121206894
:1023D000FEF72EF84FF48873002201212068FEF7E3
:1023E00027F82068A4F530744FF48073002282210E
:1023F000FEF71EF8002010BD180E0020005C004003
:1024000010B50246D2F8C03201F08000802809D110
:1024100001F07F0000EB800403F1280000EBC40012
:10242000807810BD01F07F0000EB800403F5B470EC
:1024300000EBC4008078F4E72DE9F04704460F462E
:1024400015461E464FF00008C1462B463246394617
:10245000D4F8C002FEF7EDFB80464046FFF75DFE74
:1024600081464846BDE8F0872DE9F04704460D4611
:1024700016461F464FF00008C1463B4632462946E5
:10248000D4F8C002FEF71BFC80464046FFF745FE2D
:1024900081464846BDE8F08710B504464023002237
:1024A00011462046FFF7C8FF01214FF4AC700151DF
:1024B00040214FF4B2700151402300228021204678
:1024C000FFF7BAFF0121A16140216162012084F878
:1024D0009C020020C4F894026060C4F8A402D4F8FE
:1024E000B80228B12179D4F8B40242682046904756
:1024F000002010BD014691F89C02042803D191F8F8
:102500009D0281F89C020020704710B5044694F8A3
:102510009C02032808D1D4F8B402C06920B1D4F8D1
:10252000B402C16920468847002010BD02461174DC
:10253000002070472DE9F04104460D460026002793
:102540002946D4F8C002FEF72FFE06463046FFF7B4
:10255000E4FD07463846BDE8F08170B504460D46F7
:10256000294604F52A7000F073F80120C4F894029B
:1025700040F2AE20005BC4F8980294F8A80200F084
:102580001F0020B1012808D0022812D10BE004F569
:102590002A71204600F041F913E004F52A71204623
:1025A00000F0A8FA0DE004F52A71204600F086F943
:1025B00007E094F8A80200F08001204600F004F83B
:1025C00000BF00BF002070BD2DE9F04104460D465C
:1025D000002600272946D4F8C002FEF796FB0646DF
:1025E0003046FFF79AFD07463846BDE8F08170B5E2
:1025F000044600250026D4F8C002FEF7F9FD054682
:102600002846FFF78AFD0646304670BD014691F820
:102610009C0281F89D02042081F89C0200207047F2
:102620002DE9F04704460D4616461F464FF00008B8
:10263000C1463B4632462946D4F8C002FEF7A9FB04
:1026400080464046FFF769FD81464846BDE8F08771
:102650000A7802704A7842708B78CA7803EB0222BB
:1026600042800B794A7903EB022282808B79CA7906
:1026700003EB0222C28070470246002011B1C2F86B
:10268000B41200E00220704701460020704770B588
:1026900004460D46A88810BBE88800BB68888028DF
:1026A0001DD2A87800F07F0694F89C02032804D17C
:1026B00029462046FFF7D9FA15E084F89E62314694
:1026C0002046FFF737FF2046FFF70DFB1EB1022023
:1026D00084F89C0207E0012084F89C0203E029466C
:1026E0002046FFF7C2FA70BD70B504460D460226BB
:1026F000D4F8B40238B1D4F8B402294602682046AE
:10270000904700B90026304670BD000070B5044601
:102710000D46A8783649087008460078012804DD7F
:1027200029462046FFF7A1FA60E094F89C020228AF
:1027300002D003284FD11CE02D480078A8B12C48C6
:1027400000786060032084F89C02294801782046C4
:10275000FFF7CAFF022804D129462046FFF785FA71
:1027600070BD2046FFF7BFFA02E02046FFF7BBFA34
:102770003BE01F48007870B9022084F89C021C4896
:10278000007860601A4801782046FFF72CFA20464E
:10279000FFF7A9FA1EE0164909786068884216D04A
:1027A00021792046FFF71FFA114800786060104831
:1027B00001782046FFF798FF022804D129462046D9
:1027C000FFF753FACCE72046FFF78DFA02E02046E8
:1027D000FFF789FA09E029462046FFF746FA044840
:1027E00001782046FFF7FFF900BF00BF00BFB7E741
:1027F0007000002070B505460C466088012804D1A1
:10280000C5F8A4022846FFF76EFA70BD10B504465D
:102810002046FFF7ECFE002010BD70B505460C46C3
:102820000026207800F0600060B1202802D0402807
:102830003CD100E000BFD5F8B402214682682846AA
:10284000904738E060780A2829D2DFE800F01923A1
:10285000281E280A0528140F21462846FFF703FBE7
:1028600022E021462846FFF712FF1DE021462846B8
:10287000FFF74CFF18E021462846FFF7C9FA13E09E
:1028800021462846FFF7F3FB0EE021462846FFF7D6
:10289000B1FF09E021462846FFF7B0F904E02146E0
:1028A0002846FFF7E2F900BF00BF04E021462846B2
:1028B000FFF7DBF900BF00BF304670BD2DE9F041E6
:1028C00005460E464FF000083479307800F060007D
:1028D00060B1202802D0402871D100E000BFD5F8B7
:1028E000B402314682682846904700E1307800F013
:1028F0006000202809D1D5F8B40231468268284604
:10290000904780464046BDE8F081707800285ED050
:1029100001282FD0032876D195F89C02022802D0F6
:10292000032820D110E054B1802C08D0214628463D
:10293000FFF74AFE80212846FFF746FE03E03146B6
:102940002846FFF792F913E0708840B93CB1802C1B
:1029500005D0F08818B921462846FFF735FE2846ED
:10296000FFF7C1F904E031462846FFF77EF900BFC2
:1029700000BFB5E095F89C02022802D003281FD1C1
:1029800010E054B1802C08D021462846FFF71CFEE9
:1029900080212846FFF718FE03E031462846FFF75E
:1029A00064F912E0708848B904F07F0018B121463C
:1029B0002846FFF7E1FB2846FFF795F905E091E08F
:1029C00031462846FFF751F900BF00BF88E095F86F
:1029D0009C02022802D0032876D126E034B1802C54
:1029E00004D031462846FFF740F972E004F0800039
:1029F000802809D104F07F0000EB800105F114006C
:102A000000EB810008E066E004F07F0000EB80014D
:102A100005F5AA7000EB810007460020386002220D
:102A200039462846FFF74EF953E004F0800080282D
:102A30000ED104F00F0000EB800105F1140000EB53
:102A40008100406898B931462846FFF70EF940E00A
:102A500004F00F0000EB800105F5AA7000EB810087
:102A6000406820B931462846FFF7FFF831E004F00E
:102A70008000802808D104F07F0000EB800105F180
:102A8000140000EB810007E004F07F0000EB800100
:102A900005F5AA7000EB810007460CB1802C02D12D
:102AA0000020386009E021462846FFF7A9FC10B154
:102AB0000120386001E000203860022239462846B3
:102AC000FFF700F905E0FFE731462846FFF7CDF8AC
:102AD00000BF00BF04E031462846FFF7C6F800BF3C
:102AE00000BF04E031462846FFF7BFF800BF00BF33
:102AF000404608E770B505460C460026207800F0F1
:102B0000600030B1202802D040282AD100E000BF68
:102B100000BF95F89C02012804D0022803D00328A6
:102B200018D101E000BF00BF207901280DDCD5F8E5
:102B3000B40221468268284690470646E08840B99C
:102B40003EB92846FFF7CFF803E021462846FFF7B5
:102B50008CF804E021462846FFF787F800BF00BF45
:102B600004E021462846FFF780F800BF00BF0020A0
:102B700070BD7047014601487047000004110020F5
:102B8000F0B5024600260878400032F8100048F6FA
:102B90008F1400EA0403C87830B101280CD0022851
:102BA00005D003280BD104E043F4007309E000BF13
:102BB00007E043F4C06304E043F4806301E00126CE
:102BC00000BF00BF43F4004040F080000C78640078
:102BD00022F8140000BF0C78640032F8144048F664
:102BE0008F752C400D7844EA050040F4004444F011
:102BF00080040D786D0022F8154000BF087B002886
:102C00007ED14878002852D000BF1046B2F850500C
:102C100028440D7800F5806707EB0514CD886D100A
:102C20006D00258000BF00BF0C78640032F81400EE
:102C300000F040048CB100BF0D786D0032F81550E3
:102C400048F68F7705EA070444F4004545F0C005CF
:102C50000F787F0022F8175000BF00BFC878012806
:102C600013D000BF0C78640032F8144048F6BF75EA
:102C700004EA050080F0200040F4004444F08004A1
:102C80000D786D0022F815409EE100BF0C786400BD
:102C900032F8144048F6BF7504EA050040F40044D9
:102CA00044F080040D786D0022F815408CE100BFDF
:102CB0001046B2F8505028440D78042707EBC5059C
:102CC00000F5806707EB4504CD886D106D00258009
:102CD00000BF00BF1546B2F8504025440C780627C7
:102CE00007EBC40405F5806707EB4404204600BFEA
:102CF0000F6967B9078848F2FF3C07EA0C0700E054
:102D000057E00780078847F4004707801EE00F69F7
:102D10003E2F0DD800BF0F697C080F7C07F001071C
:102D200007B1641C4FF6FF7707EA842707800DE0A0
:102D300000BF0F697C090F7C07F01F0707B9641EED
:102D40004FF4004747EA8427078000BF00BF00BF59
:102D500000BF0C78640032F8140000F480448CB199
:102D600000BF0D786D0032F8155048F68F7705EAF0
:102D7000070444F4004545F481450F787F0022F8AC
:102D8000175000BF00BF00BF0C78640032F8144039
:102D90004BF68F7504EA050080F4805080F40050F3
:102DA00040F4004444F080040D786D0022F8154092
:102DB0000AE100BF0C78640032F8144048F68F75C1
:102DC00004EA050040F4004444F4C0740D786D003A
:102DD00022F8154000BF00BF00BF00BF1046B2F888
:102DE000505028440D7800F5806707EB05140D89D5
:102DF0006D106D00258000BF00BF00BF00BF1046F2
:102E0000B2F8505028440D78042707EBC50500F5AB
:102E1000806707EB45044D896D106D00258000BF6C
:102E200000BF00BF487800285DD100BF0C78640067
:102E300032F8140000F480448CB100BF0D786D00AE
:102E400032F8155048F68F7705EA070444F4004538
:102E500045F481450F787F0022F8175000BF00BF6E
:102E600000BF0C78640032F8140000F040048CB10C
:102E700000BF0D786D0032F8155048F68F7705EADF
:102E8000070444F4004545F0C0050F787F0022F8A0
:102E9000175000BF00BF00BF0C78640032F8144028
:102EA0004BF68F7504EA050080F4805080F40050E2
:102EB00040F4004444F080040D786D0022F8154081
:102EC00000BF00BF0C78640032F8144048F6BF75AC
:102ED00004EA050040F4004444F080040D786D00DD
:102EE00022F8154070E000BF0C78640032F814003E
:102EF00000F480448CB100BF0D786D0032F815509D
:102F000048F68F7705EA070444F4004545F4814507
:102F10000F787F0022F8175000BF00BF00BF0C7869
:102F2000640032F8140000F040048CB100BF0D784A
:102F30006D0032F8155048F68F7705EA070444F41F
:102F4000004545F0C0050F787F0022F8175000BFFC
:102F500000BFC878012813D000BF0C78640032F895
:102F6000144048F6BF7504EA050080F0200040F4E4
:102F7000004444F080040D786D0022F8154011E003
:102F800000BF0C78640032F8144048F6BF7504EABC
:102F9000050040F4004444F080040D786D0022F8F0
:102FA000154000BF00BF0C78640032F814404BF6A7
:102FB0008F7504EA050040F4004444F080040D7865
:102FC0006D0022F8154000BF3046F0BD10B5044634
:102FD000002010BD30B50246087B00285BD1487840
:102FE00060B300BF0B785B0032F8130000F04003C1
:102FF0008BB100BF0C78640032F8144048F68F752E
:1030000004EA050343F4004444F0C0040D786D0065
:1030100022F8154000BF00BF00BF0B785B0032F8FC
:10302000133048F6BF7403EA040040F4004343F051
:1030300080030C78640022F8143007E100BF0B789D
:103040005B0032F8130000F480438BB100BF0C78B2
:10305000640032F8144048F68F7504EA050343F41F
:10306000004444F481440D786D0022F8154000BFFF
:1030700000BF00BF0B785B0032F813304BF68F7443
:1030800003EA040040F4004343F080030C7864003A
:1030900022F81430DAE0487800286BD100BF0B78B2
:1030A0005B0032F8130000F480438BB100BF0C7852
:1030B000640032F8144048F68F7504EA050343F4BF
:1030C000004444F481440D786D0022F8154000BF9F
:1030D00000BF00BF0B785B0032F8130000F0400324
:1030E0008BB100BF0C78640032F8144048F68F753D
:1030F00004EA050343F4004444F0C0040D786D0075
:1031000022F8154000BF00BF00BF0B785B0032F80B
:10311000133048F68F7403EA040040F4004343F090
:10312000C0030C78640022F8143000BF00BF0B7895
:103130005B0032F813304BF68F7403EA040040F45E
:10314000004343F080030C78640022F8143000BF81
:1031500000BF0B785B0032F8133048F6BF7403EA07
:10316000040040F4004343F080030C78640022F82C
:1031700014306BE000BF0B785B0032F8130000F4F2
:1031800080438BB100BF0C78640032F8144048F6DD
:103190008F7504EA050343F4004444F481440D7838
:1031A0006D0022F8154000BF00BF00BF0B785B0028
:1031B00032F8130000F040038BB100BF0C786400BC
:1031C00032F8144048F68F7504EA050343F40044CE
:1031D00044F0C0040D786D0022F8154000BF00BF18
:1031E00000BF0B785B0032F8133048F68F7403EAA7
:1031F000040040F4004343F481430C78640022F857
:10320000143000BF00BF0B785B0032F8133048F673
:10321000BF7403EA040040F4004343F080030C78D9
:10322000640022F8143000BF00BF0B785B0032F856
:1032300013304BF68F7403EA040040F4004343F06C
:1032400080030C78640022F8143000BF002030BDE9
:1032500001460020704701460020704710B5044623
:10326000012024F8400F00202080A0802082403CD4
:1032700010BD01464FF43F42B1F840009043A1F821
:1032800040000020704702460020704730B50246DB
:10329000087B002865D1487888B300BF0B785B00B5
:1032A00032F8130000F040038BB100BF0C786400CB
:1032B00032F8144048F68F7504EA050343F40044DD
:1032C00044F0C0040D786D0022F8154000BF00BF27
:1032D000C878012845D000BF0B785B0032F8133066
:1032E00048F6BF7403EA040080F0200040F4004375
:1032F00043F080030C78640022F8143031E0FFE7DB
:1033000000BF0B785B0032F8130000F480438BB1F0
:1033100000BF0C78640032F8144048F68F7504EA58
:10332000050343F4004444F481440D786D0022F811
:10333000154000BF00BF00BF0B785B0032F81330B0
:103340004BF68F7403EA040080F4805080F4005040
:1033500040F4004343F080030C78640022F81430FA
:1033600000BF002030BD10B50246487898B100BFBC
:103370000B785B0032F8133048F6BF7403EA0400A0
:1033800080F0100040F4004343F080030C786400A8
:1033900022F8143013E000BF0B785B0032F81330D2
:1033A0004BF68F7403EA040080F4805040F400432D
:1033B00043F080030C78640022F8143000BF002032
:1033C00010BD2DE9F04706460C466078012876D1FD
:1033D0002169A069884201D9256900E0A569207B9F
:1033E000A0B9ABB2E2883046616900F0F4FD00BFDD
:1033F0003046B6F8502010442278022303EBC20274
:1034000000F5806303EB42010D8081E3E078022840
:103410007DD12169206A88427AD900BF217849008C
:1034200036F8111048F68F7201EA020040F40041AC
:1034300041F4C0712278520026F8121000BF206AB1
:10344000401B20622078400036F8100000F0400059
:1034500000287DD000BF3346607888BB00BF32466D
:10346000B6F850100A4421784FF0060909EBC10163
:1034700002F5806909EB4101084600BF75B9B0F853
:10348000009048F2FF3A09EA0A09A0F80090B0F863
:10349000009049F40049A0F8009021E03E2D10D89A
:1034A00000BF690805F00109B9F1000F00D0491CFF
:1034B0004FF6FF7909EA8129A0F8009010E03DE37A
:1034C00010E000BF690905F01F09B9F1000F00D134
:1034D000491E4FF4004949EA8129A0F8009000BF35
:1034E00000BF0FE0607801280CD1B6F8500003440B
:1034F0002078062101EBC00003F5806101EB400C50
:10350000ACF8005000BF6789ABB23A4601E057E122
:103510002CE13046616900F05EFD6069284460611D
:103520002169206A884203D9206A401B206202E098
:10353000256A0020206200BF6078C0BB00BF324611
:10354000B6F850100A442178022303EBC10100E0D1
:1035500049E002F5806303EB4101084600BF55B91D
:10356000038848F2FF3C03EA0C030380038843F41A
:103570000043038019E03E2D0BD800BF690805F019
:10358000010303B1491C4FF6FF7303EA8123038053
:103590000BE000BF690905F01F0303B9491E4FF492
:1035A000004343EA8123038000BF00BF12E0FFE72E
:1035B000607801280ED100BF3046B6F85020104484
:1035C0002278022303EBC20200F5806303EB420181
:1035D0000D8000BF00BF2789ABB23A463046616913
:1035E00000F0F9FC94E200BF6078B0BB00BF324647
:1035F000B6F850100A442178022303EBC10102F50A
:10360000806303EB4101084600BF55B9038848F2C7
:10361000FF3C03EA0C030380038843F40043038068
:1036200019E03E2D0BD800BF690805F0010303B176
:10363000491C4FF6FF7303EA812303800BE000BFB0
:10364000690905F01F0303B9491E4FF4004343EA1B
:103650008123038000BF00BF12E0FFE760780128EC
:103660000ED100BF3046B6F8502010442278022315
:1036700003EBC20200F5806303EB42010D8000BF43
:1036800000BF2789ABB23A463046616900F0A3FC1F
:103690006069284460612169206A884203D9206AF0
:1036A000401B206202E0256A0020206200BF3346F2
:1036B000607880BB00BF3246B6F850100A442178CB
:1036C0004FF0060909EBC10102F5806909EB4101E0
:1036D000084600BF75B9B0F8009048F2FF3A09EA11
:1036E0000A09A0F80090B0F8009049F40049A0F849
:1036F000009020E03E2D0FD800BF690805F00109B9
:10370000B9F1000F00D0491C4FF6FF7909EA812971
:10371000A0F800900FE010E000BF690905F01F0954
:10372000B9F1000F00D1491E4FF4004949EA81293F
:10373000A0F8009000BF00BF0FE0607801280CD116
:10374000B6F8500003442078062101EBC00003F5D1
:10375000806101EB400CACF8005000BF6789ABB250
:103760003A463046616900F036FCD1E1256A00BF77
:103770002178490036F8111048F68F6201EA0200FC
:1037800040F4004141F080012278520026F81210E6
:1037900000BF00BF3046B6F8502010442278022304
:1037A00003EBC20200F5806303EB42010D8000BF12
:1037B0002789ABB23A463046616900F00CFCA7E1BC
:1037C00000BF2178490036F8111048F68F7201EADF
:1037D000020040F4004141F4C0712278520026F802
:1037E000121000BF206A401B20622078400036F88B
:1037F000100000F0400000287DD000BF3346607804
:1038000080BB00BF3246B6F850100A4421784FF012
:10381000060909EBC10102F5806909EB410108467F
:1038200000BF75B9B0F8009048F2FF3A09EA0A09FA
:10383000A0F80090B0F8009049F40049A0F800907A
:1038400020E03E2D0FD800BF690805F00109B9F14D
:10385000000F00D0491C4FF6FF7909EA8129A0F832
:1038600000900FE010E000BF690905F01F09B9F1F1
:10387000000F00D1491E4FF4004949EA8129A0F800
:10388000009000BF00BF0FE0607801280CD1B6F8AF
:10389000500003442078062101EBC00003F580614D
:1038A00001EB400CACF8005000BF6789ABB23A4660
:1038B0003046616900F08FFB6069284460612169CE
:1038C000206A884203D9206A401B206202E0256AF0
:1038D00000202062002D56D000BF6078C0BB00BF22
:1038E0003246B6F850100A442178022303EBC10196
:1038F00002F5806300E047E003EB4101084600BFAA
:1039000055B9038848F2FF3C03EA0C03038003889F
:1039100043F40043038019E03E2D0BD800BF690833
:1039200005F0010303B1491C4FF6FF7303EA81233D
:1039300003800BE000BF690905F01F0303B9491EAE
:103940004FF4004343EA8123038000BF00BF12E02D
:10395000FFE7607801280ED100BF3046B6F850204E
:1039600010442278022303EBC20200F5806303EBCC
:1039700042010D8000BF00BF2789ABB23A463046F6
:10398000616900F028FBC3E000BF6078B0BB00BFF6
:103990003246B6F850100A442178022303EBC101E5
:1039A00002F5806303EB4101084600BF55B9038867
:1039B00048F2FF3C03EA0C030380038843F400430E
:1039C000038019E03E2D0BD800BF690805F0010304
:1039D00003B1491C4FF6FF7303EA812303800BE018
:1039E00000BF690905F01F0303B9491E4FF40043E6
:1039F00043EA8123038000BF00BF12E0FFE7607845
:103A000001280ED100BF3046B6F85020104422786D
:103A1000022303EBC20200F5806303EB42010D8039
:103A200000BF00BF2789ABB23A463046616900F05B
:103A3000D2FA6069284460612169206A884203D90A
:103A4000206A401B206202E0256A00202062A5B3A4
:103A500000BF3346607888BB00BF3246B6F85010CE
:103A60000A4421784FF0060909EBC10102F580698B
:103A700009EB4101084600BF75B9B0F8009048F263
:103A8000FF3A09EA0A09A0F80090B0F8009049F45A
:103A90000049A0F8009021E03E2D10D800BF690831
:103AA00005F00109B9F1000F00D0491C4FF6FF796C
:103AB00009EA8129A0F8009010E029E010E000BF99
:103AC000690905F01F09B9F1000F00D1491E4FF433
:103AD000004949EA8129A0F8009000BF00BF0FE02B
:103AE000607801280CD1B6F85000034420780621F4
:103AF00001EBC00003F5806101EB400CACF8005015
:103B000000BF6789ABB23A463046616900F063FA9C
:103B100000BF2178490036F8111048F6BF7201EA5B
:103B2000020080F0100080F0200040F4004141F0DD
:103B300080012278520026F8121005E2207BA0BBFB
:103B40002169A069884204D92569A069401BA06148
:103B500002E0A5690020A06100BF3246B6F850100F
:103B60000A442178062303EBC10102F5806303EBCD
:103B70004101084600BF55B9038848F2FF3C03EAFB
:103B80000C030380038843F4004303801AE03E2DB6
:103B90000CD800BF690805F0010303B1491C4FF6BA
:103BA000FF7303EA812303800CE00DE000BF690985
:103BB00005F01F0303B9491E4FF4004343EA812374
:103BC000038000BF00BFA9E1E07802287DD100BFDB
:103BD00000BF6078E0BB00BF3246B6F850100A4420
:103BE0002178022303EBC10102F5806303EB41015D
:103BF000084600BF236953B9038848F2FF3C03EA33
:103C00000C030380038843F4004303801EE0236910
:103C10003E2B0DD800BF23695908237C03F0010314
:103C200003B1491C4FF6FF7303EA812303800DE0C3
:103C300000BF23695909237C03F01F0303B9491E00
:103C40004FF4004343EA8123038000BF00BF13E029
:103C5000FFE7607801280FD100BF3046B6F850204A
:103C600010442278022303EBC20200F5806303EBC9
:103C70004201228A0A8000BF00BF00BF334660783D
:103C8000E8BB00BF3246B6F850100A4421784FF026
:103C9000060909EBC10102F5806909EB41010846FB
:103CA00000BFD4F81090B9F1000F0FD1B0F8009018
:103CB00048F2FF3A09EA0A09A0F80090B0F800902B
:103CC00049F40049A0F800902EE06BE0D4F8109081
:103CD000B9F13E0F14D800BFD4F810904FEA590143
:103CE00094F8109009F00109B9F1000F00D0491CB7
:103CF0004FF6FF7909EA8129A0F8009014E015E059
:103D000000BFD4F810904FEA591194F8109009F0C0
:103D10001F09B9F1000F00D1491E4FF4004949EACB
:103D20008129A0F8009000BF00BF10E06078012852
:103D30000DD1B6F8500003442078062101EBC000F5
:103D400003F5806101EB400C208AACF8000000BF55
:103D500000BFE069002824D02078400036F81080A9
:103D600008F4804010B108F0400038B908F48040F1
:103D7000002816D108F04000002812D100BF00BF73
:103D80002178490036F8111048F68F7201EA0200D6
:103D900040F4004141F0C0012278520026F8121090
:103DA00000BFBBE0E07801287CD12169A06988428E
:103DB00004D92569A069401BA06102E0A569002023
:103DC000A06100BF00BF6078B0BB00BF3246B6F84C
:103DD00050100A442178022303EBC10102F58063ED
:103DE00003EB4101084600BF55B9038848F2FF3C88
:103DF00003EA0C030380038843F40043038019E0C3
:103E00003E2D0BD800BF690805F0010303B1491C22
:103E10004FF6FF7303EA812303800BE000BF6909BB
:103E200005F01F0303B9491E4FF4004343EA812301
:103E3000038000BF00BF12E0FFE7607801280ED1C9
:103E400000BF3046B6F8502010442278022303EB1E
:103E5000C20200F5806303EB42010D8000BF00BF8A
:103E600000BF3346607890BB00BF3246B6F85010B2
:103E70000A4421784FF0060909EBC10102F5806977
:103E800009EB4101084600BF85B9B0F8009048F23F
:103E9000FF3A09EA0A09A0F80090B0F8009049F446
:103EA000004900E037E0A0F8009020E03E2D0FD858
:103EB00000BF690805F00109B9F1000F00D0491CE5
:103EC0004FF6FF7909EA8129A0F800900FE010E091
:103ED00000BF690905F01F09B9F1000F00D1491EA3
:103EE0004FF4004949EA8129A0F8009000BF00BFC3
:103EF0000FE0607801280CD1B6F850000344207818
:103F0000062101EBC00003F5806101EB400CACF829
:103F1000005000BF02E00120BDE8F08700BF21781B
:103F2000490036F811104BF68F7201EA020080F456
:103F3000805080F4005040F4004141F0800122782C
:103F4000520026F8121000BF0020E5E701460020CD
:103F5000A1F844004FF43F42A1F840207047000010
:103F600010B50248FCF740FF10BD0000180E0020FD
:103F70000146B1F8440070472DE9F04304460E466F
:103F800015464FEA530CA046304608F5806909EB08
:103F9000450267460AE01188921C0170401C4FEAF6
:103FA000112980F80090401C921C7F1E002FF2D136
:103FB00003F00109B9F1000F01D011880170BDE8CB
:103FC000F083024600207047024611B98020A2F813
:103FD0004C00002070472DE9F04704460D461E4670
:103FE00006F1010A4FEA5A08A146284609F5806AF7
:103FF0000AEB420347460BE090F800C0401C90F8E3
:1040000000A04CEA0A2119809B1C9B1C401C7F1EAF
:10401000002FF1D1BDE8F08700BFFEE7024800683D
:10402000C0F30220704700000CED00E010B500283E
:1040300004DB0A07130E054A135406E00A07140EA0
:10404000034A00F00F031B1FD45410BD00E400E02E
:1040500018ED00E002E008C8121F08C1002AFAD1DA
:1040600070477047002001E001C1121F002AFBD1F8
:104070007047FCF717F9FDF76DFBFDF739F9FDF710
:104080003FF900BFFEE70000A84000080000002044
:10409000840100006C0100086841000884010020D0
:1040A000A41500006440000813351D1B087D041A88
:1040B0008D041AB9041AF9041A01041A45041312DA
:1040C0000114020202164083044057260201020333
:1040D00001071A040309041A031311021B080B0435
:1040E00013C7011B083508413210193B215324F432
:1040F000130A0632022A401413D1191B080F044B6D
:10410000F31A2C1A5D0C135F181B08DB04C11AB1DB
:10411000181AA1041AC1041A91041C09024393112C
:104120001DC03209045D1A020B1305241610010587
:1041300024011009010424020205240617010705C1
:104140008203081C100904C9320A1D070501027BFD
:104150002C07058107110937442A40072A810711D6
:084160002B0907440A3B04444B
:04000005080000ED02
:00000001FF
